:100000000C9441000C94F1000C94F1000C94F1005C
:100010000C94F1000C94F1000C94F1000C94F1009C
:100020000C94F1000C94F1000C94F1000C946B0012
:100030000C94F1000C94F1000C94F1000C94F1007C
:100040000C94F1000C94F1000C94F1000C94F1006C
:100050000C94F1000C94F1000C94F1000C94F1005C
:100060000C94F1000C94F1009500970099009B000E
:100070009D009F00A100A300A500A70001000101B1
:10008000800011241FBECFEFD8E0DEBFCDBFECE76C
:10009000F0E040E017C0B591A5913591259105910B
:1000A00007FD0CC095918591EF01F92FE82F059080
:1000B0000D92A217B307D9F7FE0104C01D92A21733
:1000C000B307E1F7E138F40731F70E94E5000C943B
:0600D000CA00F894FFCF06
:1000D6001F920F920FB60F9211242F933F934F93B7
:1000E6005F936F937F938F939F93AF93BF93EF939A
:1000F600FF930E94DD0080910001E1E0E80FE093AC
:100106000001EB3020F081E0809300010BC08E2FC0
:1001160090E0FC013197EA30F105B8F4EC5CFF4F52
:100126000C94EB00419A11C0429A0FC0439A0DC03D
:10013600449A0BC0459A09C05C9A07C05D9A05C0EF
:100146005E9A03C05F9A01C0289AFF91EF91BF9112
:10015600AF919F918F917F916F915F914F913F9159
:0C0166002F910F900FBE0F901F90189566
:10017200E1E8F0E080818D60808389E09DE39093E7
:10018200890080938800EFE6F0E0808182608083BE
:020192000895CE
:10019400EC010E94F6000E94F500CE010E94F700D7
:0601A400CE010E94F300F1
:1001AA00209A87B18C6387B98AB1806F8AB908951A
:1001BA0088B1817C88B98BB18F708BB928980895E2
:0C01CA000E94D5000E94B9007894FFCF7D
:0C01D600EE0FFF1F0590F491E02D09943E
:0401E2000C94000079
:0401E6000E9469000A
:0201EA00089576
:0201EC00089574
:0201EE00089572
:00000001FF
