:100000000C9441000C9415010C9415010C941501ED
:100010000C9415010C9415010C9415010C94150108
:100020000C9415010C9415010C9415010C946B00A3
:100030000C9415010C9415010C9415010C941501E8
:100040000C9415010C9415010C9415010C941501D8
:100050000C9415010C9415010C9415010C941501C8
:100060000C9415010C941501C500C700C900CB0004
:10007000CD00CF00D100D300D500D700010001048E
:10008000800011241FBECFEFD8E0DEBFCDBFECE76C
:10009000F0E040E017C0B591A5913591259105910B
:1000A00007FD0CC095918591EF01F92FE82F059080
:1000B0000D92A217B307D9F7FE0104C01D92A21733
:1000C000B307E1F7E138F40731F70E9409010C9416
:0600D000F600F894FFCFDA
:1000D6001F920F920FB60F9211242F933F934F93B7
:1000E6005F936F937F938F939F93AF93BF93EF939A
:1000F600FF93499904C081E08093010102C01092E8
:1001060001019091010180910201981779F0809187
:1001160000018F5F8093000180910001823030F0F2
:100126000E9401010E94AE0010920001809101011F
:1001360080930201FF91EF91BF91AF919F918F91B3
:100146007F916F915F914F913F912F910F900FBECD
:060156000F901F901895A8
:10015C0080910301E1E0E80FE0930301EB3020F024
:10016C0081E0809303010BC08E2F90E0FC0131974E
:10017C00EA30F105B8F4EC5CFF4F0C940F01419A96
:10018C000895429A0895439A0895449A0895459A79
:10019C0008955C9A08955D9A08955E9A08955F9A01
:0601AC000895289A089551
:1001B200E1E8F0E080818D6080838FE090E09093B1
:1001C200890080938800EFE6F0E08081826080837E
:0201D20008958E
:1001D400209A87B18E6387B98AB1806F8AB95198A2
:0801E400599A0E9401010895DF
:1001EC00EC010E941A010E941901CE010E941B0110
:0601FC00CE010E94170174
:10020200289888B1817C88B98BB18F708BB9089599
:0C0212000E94EA000E94D9007894FFCFFF
:0C021E00EE0FFF1F0590F491E02D0994F5
:04022A000C94000030
:04022E000E946900C1
:0202320008952D
:0202340008952B
:02023600089529
:00000001FF
